{
  "transactions": [
    {
      "hash": "0xd67d497fa1be8342112a32f8f3ee247d49837deb21722db060ae12e04c8fc0a8",
      "transactionType": "CALL",
      "contractName": null,
      "contractAddress": "0x4d525f583bc399dd1ff11da97e449314a0072a35",
      "function": "createMatch(string,string,uint256,uint256)",
      "arguments": [
        "Lahore Qalandars",
        "Karachi Kings",
        "1776172858",
        "1776172558"
      ],
      "transaction": {
        "from": "0xb5120cdb834db8e94846f5779ee03c147c1191ea",
        "to": "0x4d525f583bc399dd1ff11da97e449314a0072a35",
        "gas": "0x35026",
        "value": "0x0",
        "input": "0x935146d0000000000000000000000000000000000000000000000000000000000000008000000000000000000000000000000000000000000000000000000000000000c00000000000000000000000000000000000000000000000000000000069de3f3a0000000000000000000000000000000000000000000000000000000069de3e0e00000000000000000000000000000000000000000000000000000000000000104c61686f72652051616c616e6461727300000000000000000000000000000000000000000000000000000000000000000000000000000000000000000000000d4b617261636869204b696e677300000000000000000000000000000000000000",
        "nonce": "0x26",
        "chainId": "0x16975"
      },
      "additionalContracts": [],
      "isFixedGasLimit": false
    },
    {
      "hash": "0xfcfe5a819c1875e36c3272e3163c964615957d3a7e99ed7985e8556ef22bb31a",
      "transactionType": "CALL",
      "contractName": null,
      "contractAddress": "0x4d525f583bc399dd1ff11da97e449314a0072a35",
      "function": "createMatch(string,string,uint256,uint256)",
      "arguments": [
        "Islamabad United",
        "Multan Sultans",
        "1776173098",
        "1776172798"
      ],
      "transaction": {
        "from": "0xb5120cdb834db8e94846f5779ee03c147c1191ea",
        "to": "0x4d525f583bc399dd1ff11da97e449314a0072a35",
        "gas": "0x35036",
        "value": "0x0",
        "input": "0x935146d0000000000000000000000000000000000000000000000000000000000000008000000000000000000000000000000000000000000000000000000000000000c00000000000000000000000000000000000000000000000000000000069de402a0000000000000000000000000000000000000000000000000000000069de3efe000000000000000000000000000000000000000000000000000000000000001049736c616d6162616420556e6974656400000000000000000000000000000000000000000000000000000000000000000000000000000000000000000000000e4d756c74616e2053756c74616e73000000000000000000000000000000000000",
        "nonce": "0x27",
        "chainId": "0x16975"
      },
      "additionalContracts": [],
      "isFixedGasLimit": false
    },
    {
      "hash": "0xfe76db85757619c8c0d282f72fd132c0c815169db68d9b5c8cbe4e1ec7188308",
      "transactionType": "CALL",
      "contractName": null,
      "contractAddress": "0x4d525f583bc399dd1ff11da97e449314a0072a35",
      "function": "createMatch(string,string,uint256,uint256)",
      "arguments": [
        "Peshawar Zalmi",
        "Quetta Gladiators",
        "1776173338",
        "1776173038"
      ],
      "transaction": {
        "from": "0xb5120cdb834db8e94846f5779ee03c147c1191ea",
        "to": "0x4d525f583bc399dd1ff11da97e449314a0072a35",
        "gas": "0x35047",
        "value": "0x0",
        "input": "0x935146d0000000000000000000000000000000000000000000000000000000000000008000000000000000000000000000000000000000000000000000000000000000c00000000000000000000000000000000000000000000000000000000069de411a0000000000000000000000000000000000000000000000000000000069de3fee000000000000000000000000000000000000000000000000000000000000000e5065736861776172205a616c6d69000000000000000000000000000000000000000000000000000000000000000000000000000000000000000000000000001151756574746120476c61646961746f7273000000000000000000000000000000",
        "nonce": "0x28",
        "chainId": "0x16975"
      },
      "additionalContracts": [],
      "isFixedGasLimit": false
    }
  ],
  "receipts": [
    {
      "status": "0x1",
      "cumulativeGasUsed": "0x2660c",
      "logs": [
        {
          "address": "0x4d525f583bc399dd1ff11da97e449314a0072a35",
          "topics": [
            "0xfda0f059ce55b22bb6671bc1c57cc73f0420271c728de69b966562e733d8175f",
            "0x0000000000000000000000000000000000000000000000000000000000000004"
          ],
          "data": "0x000000000000000000000000000000000000000000000000000000000000008000000000000000000000000000000000000000000000000000000000000000c00000000000000000000000000000000000000000000000000000000069de3f3a0000000000000000000000000000000000000000000000000000000069de3e0e00000000000000000000000000000000000000000000000000000000000000104c61686f72652051616c616e6461727300000000000000000000000000000000000000000000000000000000000000000000000000000000000000000000000d4b617261636869204b696e677300000000000000000000000000000000000000",
          "blockHash": "0xc07c62bdc85e7259cd1d9925bda51689dfc4c20f7fb00349feef797e1f131cef",
          "blockNumber": "0xdaa66",
          "blockTimestamp": "0x69de3cf4",
          "transactionHash": "0xd67d497fa1be8342112a32f8f3ee247d49837deb21722db060ae12e04c8fc0a8",
          "transactionIndex": "0x0",
          "logIndex": "0x0",
          "removed": false
        }
      ],
      "logsBloom": "0x00000000000000000000000000000000000000000000000000000000000000000000000000000000000000000000000000000000000000000000000000000000000000000000000000000400000000000000000000000000000000800000000008000000000000000000000000000000000000001000000000000000000000000000000000000000000000000000000000040000000000000000000000000001000000000000000000000000000000000000000000000000002000000000000000000000000000000000000000000000000000008000000000000000000000000000000000000000000000000000000000000000000000000000004000000000",
      "type": "0x0",
      "transactionHash": "0xd67d497fa1be8342112a32f8f3ee247d49837deb21722db060ae12e04c8fc0a8",
      "transactionIndex": "0x0",
      "blockHash": "0xc07c62bdc85e7259cd1d9925bda51689dfc4c20f7fb00349feef797e1f131cef",
      "blockNumber": "0xdaa66",
      "gasUsed": "0x2660c",
      "effectiveGasPrice": "0x29e8d6080",
      "from": "0xb5120cdb834db8e94846f5779ee03c147c1191ea",
      "to": "0x4d525f583bc399dd1ff11da97e449314a0072a35",
      "contractAddress": null
    },
    {
      "status": "0x1",
      "cumulativeGasUsed": "0x4cc24",
      "logs": [
        {
          "address": "0x4d525f583bc399dd1ff11da97e449314a0072a35",
          "topics": [
            "0xfda0f059ce55b22bb6671bc1c57cc73f0420271c728de69b966562e733d8175f",
            "0x0000000000000000000000000000000000000000000000000000000000000005"
          ],
          "data": "0x000000000000000000000000000000000000000000000000000000000000008000000000000000000000000000000000000000000000000000000000000000c00000000000000000000000000000000000000000000000000000000069de402a0000000000000000000000000000000000000000000000000000000069de3efe000000000000000000000000000000000000000000000000000000000000001049736c616d6162616420556e6974656400000000000000000000000000000000000000000000000000000000000000000000000000000000000000000000000e4d756c74616e2053756c74616e73000000000000000000000000000000000000",
          "blockHash": "0xc07c62bdc85e7259cd1d9925bda51689dfc4c20f7fb00349feef797e1f131cef",
          "blockNumber": "0xdaa66",
          "blockTimestamp": "0x69de3cf4",
          "transactionHash": "0xfcfe5a819c1875e36c3272e3163c964615957d3a7e99ed7985e8556ef22bb31a",
          "transactionIndex": "0x1",
          "logIndex": "0x1",
          "removed": false
        }
      ],
      "logsBloom": "0x00000000000000000000000000000000000000000000000000000000000000000000000000000000000000000000000000000000000000000000000000000000000010000000000000000400000000000000000000000000000000800000000000000000000000000000000000000000000000001000000000000000000000000000000000000000000000000000001000040800000000000000000000000001000000000000000000000000000000000000000000000000000000000000000000000000000000000000000000000000000000000000000000000000000000000000000000000000000000000000000000000000000000000000004000000000",
      "type": "0x0",
      "transactionHash": "0xfcfe5a819c1875e36c3272e3163c964615957d3a7e99ed7985e8556ef22bb31a",
      "transactionIndex": "0x1",
      "blockHash": "0xc07c62bdc85e7259cd1d9925bda51689dfc4c20f7fb00349feef797e1f131cef",
      "blockNumber": "0xdaa66",
      "gasUsed": "0x26618",
      "effectiveGasPrice": "0x29e8d6080",
      "from": "0xb5120cdb834db8e94846f5779ee03c147c1191ea",
      "to": "0x4d525f583bc399dd1ff11da97e449314a0072a35",
      "contractAddress": null
    },
    {
      "status": "0x1",
      "cumulativeGasUsed": "0x73248",
      "logs": [
        {
          "address": "0x4d525f583bc399dd1ff11da97e449314a0072a35",
          "topics": [
            "0xfda0f059ce55b22bb6671bc1c57cc73f0420271c728de69b966562e733d8175f",
            "0x0000000000000000000000000000000000000000000000000000000000000006"
          ],
          "data": "0x000000000000000000000000000000000000000000000000000000000000008000000000000000000000000000000000000000000000000000000000000000c00000000000000000000000000000000000000000000000000000000069de411a0000000000000000000000000000000000000000000000000000000069de3fee000000000000000000000000000000000000000000000000000000000000000e5065736861776172205a616c6d69000000000000000000000000000000000000000000000000000000000000000000000000000000000000000000000000001151756574746120476c61646961746f7273000000000000000000000000000000",
          "blockHash": "0xc07c62bdc85e7259cd1d9925bda51689dfc4c20f7fb00349feef797e1f131cef",
          "blockNumber": "0xdaa66",
          "blockTimestamp": "0x69de3cf4",
          "transactionHash": "0xfe76db85757619c8c0d282f72fd132c0c815169db68d9b5c8cbe4e1ec7188308",
          "transactionIndex": "0x2",
          "logIndex": "0x2",
          "removed": false
        }
      ],
      "logsBloom": "0x00000000000000000000000000000000000000000000000000000000000000000000000000000000000000000000000000000000000400000000000000000000000000000000000000000400000000000000000000000000000000800000000000000000000000000000000000000000000000001000000000000000000000000000000400000000000000000000000000040000000000000000000000000001000000000000000000000000000000000000000000000000000000080000000000000000000000000000000000000000000000000000000000000000000000000000000000000000000000000000000000000000000000000000004000000000",
      "type": "0x0",
      "transactionHash": "0xfe76db85757619c8c0d282f72fd132c0c815169db68d9b5c8cbe4e1ec7188308",
      "transactionIndex": "0x2",
      "blockHash": "0xc07c62bdc85e7259cd1d9925bda51689dfc4c20f7fb00349feef797e1f131cef",
      "blockNumber": "0xdaa66",
      "gasUsed": "0x26624",
      "effectiveGasPrice": "0x29e8d6080",
      "from": "0xb5120cdb834db8e94846f5779ee03c147c1191ea",
      "to": "0x4d525f583bc399dd1ff11da97e449314a0072a35",
      "contractAddress": null
    }
  ],
  "libraries": [],
  "pending": [],
  "returns": {},
  "timestamp": 1776172285699,
  "chain": 92533,
  "commit": "a2b06ab"
}