{
  "transactions": [
    {
      "hash": "0x2de707ad4163b3b510e0a2a94e4e7754eff9b1d9752ff83321f6bb93521aeab4",
      "transactionType": "CALL",
      "contractName": null,
      "contractAddress": "0x4d525f583bc399dd1ff11da97e449314a0072a35",
      "function": "createMatch(string,string,uint256,uint256)",
      "arguments": [
        "Lahore Qalandars",
        "Karachi Kings",
        "1776170606",
        "1776170306"
      ],
      "transaction": {
        "from": "0xb5120cdb834db8e94846f5779ee03c147c1191ea",
        "to": "0x4d525f583bc399dd1ff11da97e449314a0072a35",
        "gas": "0x3ac69",
        "value": "0x0",
        "input": "0x935146d0000000000000000000000000000000000000000000000000000000000000008000000000000000000000000000000000000000000000000000000000000000c00000000000000000000000000000000000000000000000000000000069de366e0000000000000000000000000000000000000000000000000000000069de354200000000000000000000000000000000000000000000000000000000000000104c61686f72652051616c616e6461727300000000000000000000000000000000000000000000000000000000000000000000000000000000000000000000000d4b617261636869204b696e677300000000000000000000000000000000000000",
        "nonce": "0x1f",
        "chainId": "0x16975"
      },
      "additionalContracts": [],
      "isFixedGasLimit": false
    },
    {
      "hash": "0xce5e72f79eb6e6297d674fc5545d370e0bd9716001e64d29b5ee32d397155525",
      "transactionType": "CALL",
      "contractName": null,
      "contractAddress": "0x4d525f583bc399dd1ff11da97e449314a0072a35",
      "function": "createMatch(string,string,uint256,uint256)",
      "arguments": [
        "Islamabad United",
        "Multan Sultans",
        "1776170846",
        "1776170546"
      ],
      "transaction": {
        "from": "0xb5120cdb834db8e94846f5779ee03c147c1191ea",
        "to": "0x4d525f583bc399dd1ff11da97e449314a0072a35",
        "gas": "0x35036",
        "value": "0x0",
        "input": "0x935146d0000000000000000000000000000000000000000000000000000000000000008000000000000000000000000000000000000000000000000000000000000000c00000000000000000000000000000000000000000000000000000000069de375e0000000000000000000000000000000000000000000000000000000069de3632000000000000000000000000000000000000000000000000000000000000001049736c616d6162616420556e6974656400000000000000000000000000000000000000000000000000000000000000000000000000000000000000000000000e4d756c74616e2053756c74616e73000000000000000000000000000000000000",
        "nonce": "0x20",
        "chainId": "0x16975"
      },
      "additionalContracts": [],
      "isFixedGasLimit": false
    },
    {
      "hash": "0x023ee0362fb1d076d3c2c3428b9f1d7d90f4693e944b0bc8d0d31f22d7767dba",
      "transactionType": "CALL",
      "contractName": null,
      "contractAddress": "0x4d525f583bc399dd1ff11da97e449314a0072a35",
      "function": "createMatch(string,string,uint256,uint256)",
      "arguments": [
        "Peshawar Zalmi",
        "Quetta Gladiators",
        "1776171086",
        "1776170786"
      ],
      "transaction": {
        "from": "0xb5120cdb834db8e94846f5779ee03c147c1191ea",
        "to": "0x4d525f583bc399dd1ff11da97e449314a0072a35",
        "gas": "0x35047",
        "value": "0x0",
        "input": "0x935146d0000000000000000000000000000000000000000000000000000000000000008000000000000000000000000000000000000000000000000000000000000000c00000000000000000000000000000000000000000000000000000000069de384e0000000000000000000000000000000000000000000000000000000069de3722000000000000000000000000000000000000000000000000000000000000000e5065736861776172205a616c6d69000000000000000000000000000000000000000000000000000000000000000000000000000000000000000000000000001151756574746120476c61646961746f7273000000000000000000000000000000",
        "nonce": "0x21",
        "chainId": "0x16975"
      },
      "additionalContracts": [],
      "isFixedGasLimit": false
    }
  ],
  "receipts": [
    {
      "status": "0x1",
      "cumulativeGasUsed": "0x2a8d8",
      "logs": [
        {
          "address": "0x4d525f583bc399dd1ff11da97e449314a0072a35",
          "topics": [
            "0xfda0f059ce55b22bb6671bc1c57cc73f0420271c728de69b966562e733d8175f",
            "0x0000000000000000000000000000000000000000000000000000000000000001"
          ],
          "data": "0x000000000000000000000000000000000000000000000000000000000000008000000000000000000000000000000000000000000000000000000000000000c00000000000000000000000000000000000000000000000000000000069de366e0000000000000000000000000000000000000000000000000000000069de354200000000000000000000000000000000000000000000000000000000000000104c61686f72652051616c616e6461727300000000000000000000000000000000000000000000000000000000000000000000000000000000000000000000000d4b617261636869204b696e677300000000000000000000000000000000000000",
          "blockHash": "0x511fdc0e7ac4c6916c3d1a9af92a08433f0397a45a4185a2c265e6c6ec1efd35",
          "blockNumber": "0xda8de",
          "blockTimestamp": "0x69de3427",
          "transactionHash": "0x2de707ad4163b3b510e0a2a94e4e7754eff9b1d9752ff83321f6bb93521aeab4",
          "transactionIndex": "0x0",
          "logIndex": "0x0",
          "removed": false
        }
      ],
      "logsBloom": "0x00000000000000000000000000000000000000000000000000000000000000000000000000000000000000000000000000000000000000000000000000040000000000000000000000000400000000000000000000040000000000800000000000000000000000000000000000000000000000001000000000000000000000000000000000000000000000000000000000040000000000000000000000000001000000000000000000000000000000000000000000000000000000000000000000000000000000000000000000000000000000000000000000000000000040000000000000000000000000000000000000000000000000000000004000000000",
      "type": "0x0",
      "transactionHash": "0x2de707ad4163b3b510e0a2a94e4e7754eff9b1d9752ff83321f6bb93521aeab4",
      "transactionIndex": "0x0",
      "blockHash": "0x511fdc0e7ac4c6916c3d1a9af92a08433f0397a45a4185a2c265e6c6ec1efd35",
      "blockNumber": "0xda8de",
      "gasUsed": "0x2a8d8",
      "effectiveGasPrice": "0x29e8d6080",
      "from": "0xb5120cdb834db8e94846f5779ee03c147c1191ea",
      "to": "0x4d525f583bc399dd1ff11da97e449314a0072a35",
      "contractAddress": null
    },
    {
      "status": "0x1",
      "cumulativeGasUsed": "0x50ef0",
      "logs": [
        {
          "address": "0x4d525f583bc399dd1ff11da97e449314a0072a35",
          "topics": [
            "0xfda0f059ce55b22bb6671bc1c57cc73f0420271c728de69b966562e733d8175f",
            "0x0000000000000000000000000000000000000000000000000000000000000002"
          ],
          "data": "0x000000000000000000000000000000000000000000000000000000000000008000000000000000000000000000000000000000000000000000000000000000c00000000000000000000000000000000000000000000000000000000069de375e0000000000000000000000000000000000000000000000000000000069de3632000000000000000000000000000000000000000000000000000000000000001049736c616d6162616420556e6974656400000000000000000000000000000000000000000000000000000000000000000000000000000000000000000000000e4d756c74616e2053756c74616e73000000000000000000000000000000000000",
          "blockHash": "0x511fdc0e7ac4c6916c3d1a9af92a08433f0397a45a4185a2c265e6c6ec1efd35",
          "blockNumber": "0xda8de",
          "blockTimestamp": "0x69de3427",
          "transactionHash": "0xce5e72f79eb6e6297d674fc5545d370e0bd9716001e64d29b5ee32d397155525",
          "transactionIndex": "0x1",
          "logIndex": "0x1",
          "removed": false
        }
      ],
      "logsBloom": "0x04000000000000000000000000000000000000000000000000000000000000000000000000000000000000000000000000000000000000000000000000000000000000000000000000000400000000000000000000000000000000800000000000000000000000000000000000000000000000001000000000000000000000000000000000000000000000000000000000040000000000000000000000000001000000000000000000000100000000000000000000000000000000000000000000000000000000000000000000000000000000000000000000000000000000000000000000000000000000000000000000000000008000000000004000000000",
      "type": "0x0",
      "transactionHash": "0xce5e72f79eb6e6297d674fc5545d370e0bd9716001e64d29b5ee32d397155525",
      "transactionIndex": "0x1",
      "blockHash": "0x511fdc0e7ac4c6916c3d1a9af92a08433f0397a45a4185a2c265e6c6ec1efd35",
      "blockNumber": "0xda8de",
      "gasUsed": "0x26618",
      "effectiveGasPrice": "0x29e8d6080",
      "from": "0xb5120cdb834db8e94846f5779ee03c147c1191ea",
      "to": "0x4d525f583bc399dd1ff11da97e449314a0072a35",
      "contractAddress": null
    },
    {
      "status": "0x1",
      "cumulativeGasUsed": "0x77514",
      "logs": [
        {
          "address": "0x4d525f583bc399dd1ff11da97e449314a0072a35",
          "topics": [
            "0xfda0f059ce55b22bb6671bc1c57cc73f0420271c728de69b966562e733d8175f",
            "0x0000000000000000000000000000000000000000000000000000000000000003"
          ],
          "data": "0x000000000000000000000000000000000000000000000000000000000000008000000000000000000000000000000000000000000000000000000000000000c00000000000000000000000000000000000000000000000000000000069de384e0000000000000000000000000000000000000000000000000000000069de3722000000000000000000000000000000000000000000000000000000000000000e5065736861776172205a616c6d69000000000000000000000000000000000000000000000000000000000000000000000000000000000000000000000000001151756574746120476c61646961746f7273000000000000000000000000000000",
          "blockHash": "0x511fdc0e7ac4c6916c3d1a9af92a08433f0397a45a4185a2c265e6c6ec1efd35",
          "blockNumber": "0xda8de",
          "blockTimestamp": "0x69de3427",
          "transactionHash": "0x023ee0362fb1d076d3c2c3428b9f1d7d90f4693e944b0bc8d0d31f22d7767dba",
          "transactionIndex": "0x2",
          "logIndex": "0x2",
          "removed": false
        }
      ],
      "logsBloom": "0x00000000000000000000000000000000000000000000000000000000000000000000000000000000000000000000000000000000020000000000000000000000000000000000000000000400000000000000000000000000000000800000000000000000000000000000000000000000000000001000000000000000000000000000000000000000000000000000000000040000000000000000000000000001000000000000000000000000000000000000000000800000000000000000400000000000000000000000000000000000000000000000000000000000000000000000000000000000000000000000000000000000000000000000004000000000",
      "type": "0x0",
      "transactionHash": "0x023ee0362fb1d076d3c2c3428b9f1d7d90f4693e944b0bc8d0d31f22d7767dba",
      "transactionIndex": "0x2",
      "blockHash": "0x511fdc0e7ac4c6916c3d1a9af92a08433f0397a45a4185a2c265e6c6ec1efd35",
      "blockNumber": "0xda8de",
      "gasUsed": "0x26624",
      "effectiveGasPrice": "0x29e8d6080",
      "from": "0xb5120cdb834db8e94846f5779ee03c147c1191ea",
      "to": "0x4d525f583bc399dd1ff11da97e449314a0072a35",
      "contractAddress": null
    }
  ],
  "libraries": [],
  "pending": [],
  "returns": {},
  "timestamp": 1776170033983,
  "chain": 92533,
  "commit": "a2b06ab"
}