{
  "transactions": [
    {
      "hash": "0x460a65bf3d6b9f90829d2d37ac69d3ee39698dbeba860d55b46d77ed089a59f3",
      "transactionType": "CALL",
      "contractName": null,
      "contractAddress": "0x4c272a52fe77ebb39f5d3eff162adaed277e07a7",
      "function": "createMatch(string,string,uint256,uint256)",
      "arguments": [
        "Lahore Qalandars",
        "Karachi Kings",
        "1776177389",
        "1776177089"
      ],
      "transaction": {
        "from": "0xb5120cdb834db8e94846f5779ee03c147c1191ea",
        "to": "0x4c272a52fe77ebb39f5d3eff162adaed277e07a7",
        "gas": "0x35026",
        "value": "0x0",
        "input": "0x935146d0000000000000000000000000000000000000000000000000000000000000008000000000000000000000000000000000000000000000000000000000000000c00000000000000000000000000000000000000000000000000000000069de50ed0000000000000000000000000000000000000000000000000000000069de4fc100000000000000000000000000000000000000000000000000000000000000104c61686f72652051616c616e6461727300000000000000000000000000000000000000000000000000000000000000000000000000000000000000000000000d4b617261636869204b696e677300000000000000000000000000000000000000",
        "nonce": "0x33",
        "chainId": "0x16975"
      },
      "additionalContracts": [],
      "isFixedGasLimit": false
    },
    {
      "hash": "0x0c12d72875e2ba0909b036b36d4d737b6d04ada80e0206fe7605ce4988ba36e4",
      "transactionType": "CALL",
      "contractName": null,
      "contractAddress": "0x4c272a52fe77ebb39f5d3eff162adaed277e07a7",
      "function": "createMatch(string,string,uint256,uint256)",
      "arguments": [
        "Islamabad United",
        "Multan Sultans",
        "1776177629",
        "1776177329"
      ],
      "transaction": {
        "from": "0xb5120cdb834db8e94846f5779ee03c147c1191ea",
        "to": "0x4c272a52fe77ebb39f5d3eff162adaed277e07a7",
        "gas": "0x35036",
        "value": "0x0",
        "input": "0x935146d0000000000000000000000000000000000000000000000000000000000000008000000000000000000000000000000000000000000000000000000000000000c00000000000000000000000000000000000000000000000000000000069de51dd0000000000000000000000000000000000000000000000000000000069de50b1000000000000000000000000000000000000000000000000000000000000001049736c616d6162616420556e6974656400000000000000000000000000000000000000000000000000000000000000000000000000000000000000000000000e4d756c74616e2053756c74616e73000000000000000000000000000000000000",
        "nonce": "0x34",
        "chainId": "0x16975"
      },
      "additionalContracts": [],
      "isFixedGasLimit": false
    },
    {
      "hash": "0x340662afa05c788df961b0815673a42cc96faf45c4a7c9f3ee176320aea8004d",
      "transactionType": "CALL",
      "contractName": null,
      "contractAddress": "0x4c272a52fe77ebb39f5d3eff162adaed277e07a7",
      "function": "createMatch(string,string,uint256,uint256)",
      "arguments": [
        "Peshawar Zalmi",
        "Quetta Gladiators",
        "1776177869",
        "1776177569"
      ],
      "transaction": {
        "from": "0xb5120cdb834db8e94846f5779ee03c147c1191ea",
        "to": "0x4c272a52fe77ebb39f5d3eff162adaed277e07a7",
        "gas": "0x35047",
        "value": "0x0",
        "input": "0x935146d0000000000000000000000000000000000000000000000000000000000000008000000000000000000000000000000000000000000000000000000000000000c00000000000000000000000000000000000000000000000000000000069de52cd0000000000000000000000000000000000000000000000000000000069de51a1000000000000000000000000000000000000000000000000000000000000000e5065736861776172205a616c6d69000000000000000000000000000000000000000000000000000000000000000000000000000000000000000000000000001151756574746120476c61646961746f7273000000000000000000000000000000",
        "nonce": "0x35",
        "chainId": "0x16975"
      },
      "additionalContracts": [],
      "isFixedGasLimit": false
    }
  ],
  "receipts": [
    {
      "status": "0x1",
      "cumulativeGasUsed": "0x2660c",
      "logs": [
        {
          "address": "0x4c272a52fe77ebb39f5d3eff162adaed277e07a7",
          "topics": [
            "0xfda0f059ce55b22bb6671bc1c57cc73f0420271c728de69b966562e733d8175f",
            "0x0000000000000000000000000000000000000000000000000000000000000004"
          ],
          "data": "0x000000000000000000000000000000000000000000000000000000000000008000000000000000000000000000000000000000000000000000000000000000c00000000000000000000000000000000000000000000000000000000069de50ed0000000000000000000000000000000000000000000000000000000069de4fc100000000000000000000000000000000000000000000000000000000000000104c61686f72652051616c616e6461727300000000000000000000000000000000000000000000000000000000000000000000000000000000000000000000000d4b617261636869204b696e677300000000000000000000000000000000000000",
          "blockHash": "0x888f614a5eb96be0d03b71bad97e7354380340167332477946878c45d52ba6f9",
          "blockNumber": "0xdad7c",
          "blockTimestamp": "0x69de4ea7",
          "transactionHash": "0x460a65bf3d6b9f90829d2d37ac69d3ee39698dbeba860d55b46d77ed089a59f3",
          "transactionIndex": "0x0",
          "logIndex": "0x0",
          "removed": false
        }
      ],
      "logsBloom": "0x00000000000000000000000000000000000000000000000000040000000000000000000000000000000000000000000000000000000000000000000000000000000000000000000000000000000000000000000000000000000000800000000008000000000000000000000000000000000000001000000000000000000000000000000000000000000000000000000000040000000000000000000000000000000000000000000000000000000000000000000000100000002000000000000000000000000000000000200000000000000000008000000000000000000000000000000000000000000000000000000000000000000000000000000000000000",
      "type": "0x0",
      "transactionHash": "0x460a65bf3d6b9f90829d2d37ac69d3ee39698dbeba860d55b46d77ed089a59f3",
      "transactionIndex": "0x0",
      "blockHash": "0x888f614a5eb96be0d03b71bad97e7354380340167332477946878c45d52ba6f9",
      "blockNumber": "0xdad7c",
      "gasUsed": "0x2660c",
      "effectiveGasPrice": "0x29e8d6080",
      "from": "0xb5120cdb834db8e94846f5779ee03c147c1191ea",
      "to": "0x4c272a52fe77ebb39f5d3eff162adaed277e07a7",
      "contractAddress": null
    },
    {
      "status": "0x1",
      "cumulativeGasUsed": "0x4cc24",
      "logs": [
        {
          "address": "0x4c272a52fe77ebb39f5d3eff162adaed277e07a7",
          "topics": [
            "0xfda0f059ce55b22bb6671bc1c57cc73f0420271c728de69b966562e733d8175f",
            "0x0000000000000000000000000000000000000000000000000000000000000005"
          ],
          "data": "0x000000000000000000000000000000000000000000000000000000000000008000000000000000000000000000000000000000000000000000000000000000c00000000000000000000000000000000000000000000000000000000069de51dd0000000000000000000000000000000000000000000000000000000069de50b1000000000000000000000000000000000000000000000000000000000000001049736c616d6162616420556e6974656400000000000000000000000000000000000000000000000000000000000000000000000000000000000000000000000e4d756c74616e2053756c74616e73000000000000000000000000000000000000",
          "blockHash": "0x888f614a5eb96be0d03b71bad97e7354380340167332477946878c45d52ba6f9",
          "blockNumber": "0xdad7c",
          "blockTimestamp": "0x69de4ea7",
          "transactionHash": "0x0c12d72875e2ba0909b036b36d4d737b6d04ada80e0206fe7605ce4988ba36e4",
          "transactionIndex": "0x1",
          "logIndex": "0x1",
          "removed": false
        }
      ],
      "logsBloom": "0x00000000000000000000000000000000000000000000000000040000000000000000000000000000000000000000000000000000000000000000000000000000000010000000000000000000000000000000000000000000000000800000000000000000000000000000000000000000000000001000000000000000000000000000000000000000000000000000001000040800000000000000000000000000000000000000000000000000000000000000000000100000000000000000000000000000000000000000200000000000000000000000000000000000000000000000000000000000000000000000000000000000000000000000000000000000",
      "type": "0x0",
      "transactionHash": "0x0c12d72875e2ba0909b036b36d4d737b6d04ada80e0206fe7605ce4988ba36e4",
      "transactionIndex": "0x1",
      "blockHash": "0x888f614a5eb96be0d03b71bad97e7354380340167332477946878c45d52ba6f9",
      "blockNumber": "0xdad7c",
      "gasUsed": "0x26618",
      "effectiveGasPrice": "0x29e8d6080",
      "from": "0xb5120cdb834db8e94846f5779ee03c147c1191ea",
      "to": "0x4c272a52fe77ebb39f5d3eff162adaed277e07a7",
      "contractAddress": null
    },
    {
      "status": "0x1",
      "cumulativeGasUsed": "0x73248",
      "logs": [
        {
          "address": "0x4c272a52fe77ebb39f5d3eff162adaed277e07a7",
          "topics": [
            "0xfda0f059ce55b22bb6671bc1c57cc73f0420271c728de69b966562e733d8175f",
            "0x0000000000000000000000000000000000000000000000000000000000000006"
          ],
          "data": "0x000000000000000000000000000000000000000000000000000000000000008000000000000000000000000000000000000000000000000000000000000000c00000000000000000000000000000000000000000000000000000000069de52cd0000000000000000000000000000000000000000000000000000000069de51a1000000000000000000000000000000000000000000000000000000000000000e5065736861776172205a616c6d69000000000000000000000000000000000000000000000000000000000000000000000000000000000000000000000000001151756574746120476c61646961746f7273000000000000000000000000000000",
          "blockHash": "0x888f614a5eb96be0d03b71bad97e7354380340167332477946878c45d52ba6f9",
          "blockNumber": "0xdad7c",
          "blockTimestamp": "0x69de4ea7",
          "transactionHash": "0x340662afa05c788df961b0815673a42cc96faf45c4a7c9f3ee176320aea8004d",
          "transactionIndex": "0x2",
          "logIndex": "0x2",
          "removed": false
        }
      ],
      "logsBloom": "0x00000000000000000000000000000000000000000000000000040000000000000000000000000000000000000000000000000000000400000000000000000000000000000000000000000000000000000000000000000000000000800000000000000000000000000000000000000000000000001000000000000000000000000000000400000000000000000000000000040000000000000000000000000000000000000000000000000000000000000000000000100000000000080000000000000000000000000000200000000000000000000000000000000000000000000000000000000000000000000000000000000000000000000000000000000000",
      "type": "0x0",
      "transactionHash": "0x340662afa05c788df961b0815673a42cc96faf45c4a7c9f3ee176320aea8004d",
      "transactionIndex": "0x2",
      "blockHash": "0x888f614a5eb96be0d03b71bad97e7354380340167332477946878c45d52ba6f9",
      "blockNumber": "0xdad7c",
      "gasUsed": "0x26624",
      "effectiveGasPrice": "0x29e8d6080",
      "from": "0xb5120cdb834db8e94846f5779ee03c147c1191ea",
      "to": "0x4c272a52fe77ebb39f5d3eff162adaed277e07a7",
      "contractAddress": null
    }
  ],
  "libraries": [],
  "pending": [],
  "returns": {},
  "timestamp": 1776176816043,
  "chain": 92533,
  "commit": "a2b06ab"
}