{
  "transactions": [
    {
      "hash": "0x9cbfbbb26dbb814404868b913b2383811139926b02fa0754634f820ad467be56",
      "transactionType": "CALL",
      "contractName": null,
      "contractAddress": "0x4c272a52fe77ebb39f5d3eff162adaed277e07a7",
      "function": "createMatch(string,string,uint256,uint256)",
      "arguments": [
        "Lahore Qalandars",
        "Karachi Kings",
        "1776177308",
        "1776177008"
      ],
      "transaction": {
        "from": "0xb5120cdb834db8e94846f5779ee03c147c1191ea",
        "to": "0x4c272a52fe77ebb39f5d3eff162adaed277e07a7",
        "gas": "0x3ac69",
        "value": "0x0",
        "input": "0x935146d0000000000000000000000000000000000000000000000000000000000000008000000000000000000000000000000000000000000000000000000000000000c00000000000000000000000000000000000000000000000000000000069de509c0000000000000000000000000000000000000000000000000000000069de4f7000000000000000000000000000000000000000000000000000000000000000104c61686f72652051616c616e6461727300000000000000000000000000000000000000000000000000000000000000000000000000000000000000000000000d4b617261636869204b696e677300000000000000000000000000000000000000",
        "nonce": "0x30",
        "chainId": "0x16975"
      },
      "additionalContracts": [],
      "isFixedGasLimit": false
    },
    {
      "hash": "0xeee81a95a9fe832197ac957b04c662dc23afa9828f6bab10fb520c1ea84d0ffd",
      "transactionType": "CALL",
      "contractName": null,
      "contractAddress": "0x4c272a52fe77ebb39f5d3eff162adaed277e07a7",
      "function": "createMatch(string,string,uint256,uint256)",
      "arguments": [
        "Islamabad United",
        "Multan Sultans",
        "1776177548",
        "1776177248"
      ],
      "transaction": {
        "from": "0xb5120cdb834db8e94846f5779ee03c147c1191ea",
        "to": "0x4c272a52fe77ebb39f5d3eff162adaed277e07a7",
        "gas": "0x35036",
        "value": "0x0",
        "input": "0x935146d0000000000000000000000000000000000000000000000000000000000000008000000000000000000000000000000000000000000000000000000000000000c00000000000000000000000000000000000000000000000000000000069de518c0000000000000000000000000000000000000000000000000000000069de5060000000000000000000000000000000000000000000000000000000000000001049736c616d6162616420556e6974656400000000000000000000000000000000000000000000000000000000000000000000000000000000000000000000000e4d756c74616e2053756c74616e73000000000000000000000000000000000000",
        "nonce": "0x31",
        "chainId": "0x16975"
      },
      "additionalContracts": [],
      "isFixedGasLimit": false
    },
    {
      "hash": "0x5556ab101ed4b5f04e141dc638d26af386644ec405b62a079decc9434edb2d37",
      "transactionType": "CALL",
      "contractName": null,
      "contractAddress": "0x4c272a52fe77ebb39f5d3eff162adaed277e07a7",
      "function": "createMatch(string,string,uint256,uint256)",
      "arguments": [
        "Peshawar Zalmi",
        "Quetta Gladiators",
        "1776177788",
        "1776177488"
      ],
      "transaction": {
        "from": "0xb5120cdb834db8e94846f5779ee03c147c1191ea",
        "to": "0x4c272a52fe77ebb39f5d3eff162adaed277e07a7",
        "gas": "0x35047",
        "value": "0x0",
        "input": "0x935146d0000000000000000000000000000000000000000000000000000000000000008000000000000000000000000000000000000000000000000000000000000000c00000000000000000000000000000000000000000000000000000000069de527c0000000000000000000000000000000000000000000000000000000069de5150000000000000000000000000000000000000000000000000000000000000000e5065736861776172205a616c6d69000000000000000000000000000000000000000000000000000000000000000000000000000000000000000000000000001151756574746120476c61646961746f7273000000000000000000000000000000",
        "nonce": "0x32",
        "chainId": "0x16975"
      },
      "additionalContracts": [],
      "isFixedGasLimit": false
    }
  ],
  "receipts": [
    {
      "status": "0x1",
      "cumulativeGasUsed": "0x2a8d8",
      "logs": [
        {
          "address": "0x4c272a52fe77ebb39f5d3eff162adaed277e07a7",
          "topics": [
            "0xfda0f059ce55b22bb6671bc1c57cc73f0420271c728de69b966562e733d8175f",
            "0x0000000000000000000000000000000000000000000000000000000000000001"
          ],
          "data": "0x000000000000000000000000000000000000000000000000000000000000008000000000000000000000000000000000000000000000000000000000000000c00000000000000000000000000000000000000000000000000000000069de509c0000000000000000000000000000000000000000000000000000000069de4f7000000000000000000000000000000000000000000000000000000000000000104c61686f72652051616c616e6461727300000000000000000000000000000000000000000000000000000000000000000000000000000000000000000000000d4b617261636869204b696e677300000000000000000000000000000000000000",
          "blockHash": "0x5496803ad01252b7ce6447fbf106138a9dd6a01810814dc6ee3317faa1479d32",
          "blockNumber": "0xdad6f",
          "blockTimestamp": "0x69de4e5c",
          "transactionHash": "0x9cbfbbb26dbb814404868b913b2383811139926b02fa0754634f820ad467be56",
          "transactionIndex": "0x0",
          "logIndex": "0x0",
          "removed": false
        }
      ],
      "logsBloom": "0x00000000000000000000000000000000000000000000000000040000000000000000000000000000000000000000000000000000000000000000000000040000000000000000000000000000000000000000000000040000000000800000000000000000000000000000000000000000000000001000000000000000000000000000000000000000000000000000000000040000000000000000000000000000000000000000000000000000000000000000000000100000000000000000000000000000000000000000200000000000000000000000000000000000000040000000000000000000000000000000000000000000000000000000000000000000",
      "type": "0x0",
      "transactionHash": "0x9cbfbbb26dbb814404868b913b2383811139926b02fa0754634f820ad467be56",
      "transactionIndex": "0x0",
      "blockHash": "0x5496803ad01252b7ce6447fbf106138a9dd6a01810814dc6ee3317faa1479d32",
      "blockNumber": "0xdad6f",
      "gasUsed": "0x2a8d8",
      "effectiveGasPrice": "0x29e8d6080",
      "from": "0xb5120cdb834db8e94846f5779ee03c147c1191ea",
      "to": "0x4c272a52fe77ebb39f5d3eff162adaed277e07a7",
      "contractAddress": null
    },
    {
      "status": "0x1",
      "cumulativeGasUsed": "0x50ef0",
      "logs": [
        {
          "address": "0x4c272a52fe77ebb39f5d3eff162adaed277e07a7",
          "topics": [
            "0xfda0f059ce55b22bb6671bc1c57cc73f0420271c728de69b966562e733d8175f",
            "0x0000000000000000000000000000000000000000000000000000000000000002"
          ],
          "data": "0x000000000000000000000000000000000000000000000000000000000000008000000000000000000000000000000000000000000000000000000000000000c00000000000000000000000000000000000000000000000000000000069de518c0000000000000000000000000000000000000000000000000000000069de5060000000000000000000000000000000000000000000000000000000000000001049736c616d6162616420556e6974656400000000000000000000000000000000000000000000000000000000000000000000000000000000000000000000000e4d756c74616e2053756c74616e73000000000000000000000000000000000000",
          "blockHash": "0x5496803ad01252b7ce6447fbf106138a9dd6a01810814dc6ee3317faa1479d32",
          "blockNumber": "0xdad6f",
          "blockTimestamp": "0x69de4e5c",
          "transactionHash": "0xeee81a95a9fe832197ac957b04c662dc23afa9828f6bab10fb520c1ea84d0ffd",
          "transactionIndex": "0x1",
          "logIndex": "0x1",
          "removed": false
        }
      ],
      "logsBloom": "0x04000000000000000000000000000000000000000000000000040000000000000000000000000000000000000000000000000000000000000000000000000000000000000000000000000000000000000000000000000000000000800000000000000000000000000000000000000000000000001000000000000000000000000000000000000000000000000000000000040000000000000000000000000000000000000000000000000100000000000000000000100000000000000000000000000000000000000000200000000000000000000000000000000000000000000000000000000000000000000000000000000000008000000000000000000000",
      "type": "0x0",
      "transactionHash": "0xeee81a95a9fe832197ac957b04c662dc23afa9828f6bab10fb520c1ea84d0ffd",
      "transactionIndex": "0x1",
      "blockHash": "0x5496803ad01252b7ce6447fbf106138a9dd6a01810814dc6ee3317faa1479d32",
      "blockNumber": "0xdad6f",
      "gasUsed": "0x26618",
      "effectiveGasPrice": "0x29e8d6080",
      "from": "0xb5120cdb834db8e94846f5779ee03c147c1191ea",
      "to": "0x4c272a52fe77ebb39f5d3eff162adaed277e07a7",
      "contractAddress": null
    },
    {
      "status": "0x1",
      "cumulativeGasUsed": "0x77514",
      "logs": [
        {
          "address": "0x4c272a52fe77ebb39f5d3eff162adaed277e07a7",
          "topics": [
            "0xfda0f059ce55b22bb6671bc1c57cc73f0420271c728de69b966562e733d8175f",
            "0x0000000000000000000000000000000000000000000000000000000000000003"
          ],
          "data": "0x000000000000000000000000000000000000000000000000000000000000008000000000000000000000000000000000000000000000000000000000000000c00000000000000000000000000000000000000000000000000000000069de527c0000000000000000000000000000000000000000000000000000000069de5150000000000000000000000000000000000000000000000000000000000000000e5065736861776172205a616c6d69000000000000000000000000000000000000000000000000000000000000000000000000000000000000000000000000001151756574746120476c61646961746f7273000000000000000000000000000000",
          "blockHash": "0x5496803ad01252b7ce6447fbf106138a9dd6a01810814dc6ee3317faa1479d32",
          "blockNumber": "0xdad6f",
          "blockTimestamp": "0x69de4e5c",
          "transactionHash": "0x5556ab101ed4b5f04e141dc638d26af386644ec405b62a079decc9434edb2d37",
          "transactionIndex": "0x2",
          "logIndex": "0x2",
          "removed": false
        }
      ],
      "logsBloom": "0x00000000000000000000000000000000000000000000000000040000000000000000000000000000000000000000000000000000020000000000000000000000000000000000000000000000000000000000000000000000000000800000000000000000000000000000000000000000000000001000000000000000000000000000000000000000000000000000000000040000000000000000000000000000000000000000000000000000000000000000000000900000000000000000400000000000000000000000200000000000000000000000000000000000000000000000000000000000000000000000000000000000000000000000000000000000",
      "type": "0x0",
      "transactionHash": "0x5556ab101ed4b5f04e141dc638d26af386644ec405b62a079decc9434edb2d37",
      "transactionIndex": "0x2",
      "blockHash": "0x5496803ad01252b7ce6447fbf106138a9dd6a01810814dc6ee3317faa1479d32",
      "blockNumber": "0xdad6f",
      "gasUsed": "0x26624",
      "effectiveGasPrice": "0x29e8d6080",
      "from": "0xb5120cdb834db8e94846f5779ee03c147c1191ea",
      "to": "0x4c272a52fe77ebb39f5d3eff162adaed277e07a7",
      "contractAddress": null
    }
  ],
  "libraries": [],
  "pending": [],
  "returns": {},
  "timestamp": 1776176741895,
  "chain": 92533,
  "commit": "a2b06ab"
}