{
  "transactions": [
    {
      "hash": "0x94be48c5c3ce9defa28cc54534060785eb5f1c7cc75fb1561afb9eaa6c0460a9",
      "transactionType": "CALL",
      "contractName": null,
      "contractAddress": "0x804770df179ca465a8ed7d2d827cc200394c4265",
      "function": "createMatch(string,string,uint256,uint256)",
      "arguments": [
        "Lahore Qalandars",
        "Karachi Kings",
        "1776216529",
        "1776216229"
      ],
      "transaction": {
        "from": "0xb5120cdb834db8e94846f5779ee03c147c1191ea",
        "to": "0x804770df179ca465a8ed7d2d827cc200394c4265",
        "gas": "0x3ac69",
        "value": "0x0",
        "input": "0x935146d0000000000000000000000000000000000000000000000000000000000000008000000000000000000000000000000000000000000000000000000000000000c00000000000000000000000000000000000000000000000000000000069dee9d10000000000000000000000000000000000000000000000000000000069dee8a500000000000000000000000000000000000000000000000000000000000000104c61686f72652051616c616e6461727300000000000000000000000000000000000000000000000000000000000000000000000000000000000000000000000d4b617261636869204b696e677300000000000000000000000000000000000000",
        "nonce": "0x3c",
        "chainId": "0x16975"
      },
      "additionalContracts": [],
      "isFixedGasLimit": false
    },
    {
      "hash": "0x7b2ae23896e61b2ea1c3d8bec5a3617d4cd093a7a1c36deabfc5c55eae814c0a",
      "transactionType": "CALL",
      "contractName": null,
      "contractAddress": "0x804770df179ca465a8ed7d2d827cc200394c4265",
      "function": "createMatch(string,string,uint256,uint256)",
      "arguments": [
        "Islamabad United",
        "Multan Sultans",
        "1776216769",
        "1776216469"
      ],
      "transaction": {
        "from": "0xb5120cdb834db8e94846f5779ee03c147c1191ea",
        "to": "0x804770df179ca465a8ed7d2d827cc200394c4265",
        "gas": "0x35036",
        "value": "0x0",
        "input": "0x935146d0000000000000000000000000000000000000000000000000000000000000008000000000000000000000000000000000000000000000000000000000000000c00000000000000000000000000000000000000000000000000000000069deeac10000000000000000000000000000000000000000000000000000000069dee995000000000000000000000000000000000000000000000000000000000000001049736c616d6162616420556e6974656400000000000000000000000000000000000000000000000000000000000000000000000000000000000000000000000e4d756c74616e2053756c74616e73000000000000000000000000000000000000",
        "nonce": "0x3d",
        "chainId": "0x16975"
      },
      "additionalContracts": [],
      "isFixedGasLimit": false
    },
    {
      "hash": "0xe09ba6dbf58d2a8704cbcdda64e8438359629f4eae3ebadfec98bfd150b79107",
      "transactionType": "CALL",
      "contractName": null,
      "contractAddress": "0x804770df179ca465a8ed7d2d827cc200394c4265",
      "function": "createMatch(string,string,uint256,uint256)",
      "arguments": [
        "Peshawar Zalmi",
        "Quetta Gladiators",
        "1776217009",
        "1776216709"
      ],
      "transaction": {
        "from": "0xb5120cdb834db8e94846f5779ee03c147c1191ea",
        "to": "0x804770df179ca465a8ed7d2d827cc200394c4265",
        "gas": "0x35047",
        "value": "0x0",
        "input": "0x935146d0000000000000000000000000000000000000000000000000000000000000008000000000000000000000000000000000000000000000000000000000000000c00000000000000000000000000000000000000000000000000000000069deebb10000000000000000000000000000000000000000000000000000000069deea85000000000000000000000000000000000000000000000000000000000000000e5065736861776172205a616c6d69000000000000000000000000000000000000000000000000000000000000000000000000000000000000000000000000001151756574746120476c61646961746f7273000000000000000000000000000000",
        "nonce": "0x3e",
        "chainId": "0x16975"
      },
      "additionalContracts": [],
      "isFixedGasLimit": false
    }
  ],
  "receipts": [
    {
      "status": "0x1",
      "cumulativeGasUsed": "0x2a8d8",
      "logs": [
        {
          "address": "0x804770df179ca465a8ed7d2d827cc200394c4265",
          "topics": [
            "0xfda0f059ce55b22bb6671bc1c57cc73f0420271c728de69b966562e733d8175f",
            "0x0000000000000000000000000000000000000000000000000000000000000001"
          ],
          "data": "0x000000000000000000000000000000000000000000000000000000000000008000000000000000000000000000000000000000000000000000000000000000c00000000000000000000000000000000000000000000000000000000069dee9d10000000000000000000000000000000000000000000000000000000069dee8a500000000000000000000000000000000000000000000000000000000000000104c61686f72652051616c616e6461727300000000000000000000000000000000000000000000000000000000000000000000000000000000000000000000000d4b617261636869204b696e677300000000000000000000000000000000000000",
          "blockHash": "0xa0e4d43571da45b2d94214bc099973ce33942f747af58d161fdc5095bd3e7012",
          "blockNumber": "0xdc826",
          "blockTimestamp": "0x69dee78a",
          "transactionHash": "0x94be48c5c3ce9defa28cc54534060785eb5f1c7cc75fb1561afb9eaa6c0460a9",
          "transactionIndex": "0x0",
          "logIndex": "0x0",
          "removed": false
        }
      ],
      "logsBloom": "0x00000000000000000000000000000000000100000000000000000000000000000000000000000000000000000000000000000000000000000000000000040000000000000000000000000000000000000000000000040000000000801000000000000000000000000000000000000000000000001000000080000000000000000000000000000000000000000000000000040000000000000000000000000000000000000000000000000000000000000000000000000000000000000000000000000000000000000000000000000000000000000000000000000000000040000000000000000000000000000000000000000000000000000000000000000000",
      "type": "0x0",
      "transactionHash": "0x94be48c5c3ce9defa28cc54534060785eb5f1c7cc75fb1561afb9eaa6c0460a9",
      "transactionIndex": "0x0",
      "blockHash": "0xa0e4d43571da45b2d94214bc099973ce33942f747af58d161fdc5095bd3e7012",
      "blockNumber": "0xdc826",
      "gasUsed": "0x2a8d8",
      "effectiveGasPrice": "0x29e8d6080",
      "from": "0xb5120cdb834db8e94846f5779ee03c147c1191ea",
      "to": "0x804770df179ca465a8ed7d2d827cc200394c4265",
      "contractAddress": null
    },
    {
      "status": "0x1",
      "cumulativeGasUsed": "0x50ef0",
      "logs": [
        {
          "address": "0x804770df179ca465a8ed7d2d827cc200394c4265",
          "topics": [
            "0xfda0f059ce55b22bb6671bc1c57cc73f0420271c728de69b966562e733d8175f",
            "0x0000000000000000000000000000000000000000000000000000000000000002"
          ],
          "data": "0x000000000000000000000000000000000000000000000000000000000000008000000000000000000000000000000000000000000000000000000000000000c00000000000000000000000000000000000000000000000000000000069deeac10000000000000000000000000000000000000000000000000000000069dee995000000000000000000000000000000000000000000000000000000000000001049736c616d6162616420556e6974656400000000000000000000000000000000000000000000000000000000000000000000000000000000000000000000000e4d756c74616e2053756c74616e73000000000000000000000000000000000000",
          "blockHash": "0xa0e4d43571da45b2d94214bc099973ce33942f747af58d161fdc5095bd3e7012",
          "blockNumber": "0xdc826",
          "blockTimestamp": "0x69dee78a",
          "transactionHash": "0x7b2ae23896e61b2ea1c3d8bec5a3617d4cd093a7a1c36deabfc5c55eae814c0a",
          "transactionIndex": "0x1",
          "logIndex": "0x1",
          "removed": false
        }
      ],
      "logsBloom": "0x04000000000000000000000000000000000100000000000000000000000000000000000000000000000000000000000000000000000000000000000000000000000000000000000000000000000000000000000000000000000000801000000000000000000000000000000000000000000000001000000080000000000000000000000000000000000000000000000000040000000000000000000000000000000000000000000000000100000000000000000000000000000000000000000000000000000000000000000000000000000000000000000000000000000000000000000000000000000000000000000000000000008000000000000000000000",
      "type": "0x0",
      "transactionHash": "0x7b2ae23896e61b2ea1c3d8bec5a3617d4cd093a7a1c36deabfc5c55eae814c0a",
      "transactionIndex": "0x1",
      "blockHash": "0xa0e4d43571da45b2d94214bc099973ce33942f747af58d161fdc5095bd3e7012",
      "blockNumber": "0xdc826",
      "gasUsed": "0x26618",
      "effectiveGasPrice": "0x29e8d6080",
      "from": "0xb5120cdb834db8e94846f5779ee03c147c1191ea",
      "to": "0x804770df179ca465a8ed7d2d827cc200394c4265",
      "contractAddress": null
    },
    {
      "status": "0x1",
      "cumulativeGasUsed": "0x77514",
      "logs": [
        {
          "address": "0x804770df179ca465a8ed7d2d827cc200394c4265",
          "topics": [
            "0xfda0f059ce55b22bb6671bc1c57cc73f0420271c728de69b966562e733d8175f",
            "0x0000000000000000000000000000000000000000000000000000000000000003"
          ],
          "data": "0x000000000000000000000000000000000000000000000000000000000000008000000000000000000000000000000000000000000000000000000000000000c00000000000000000000000000000000000000000000000000000000069deebb10000000000000000000000000000000000000000000000000000000069deea85000000000000000000000000000000000000000000000000000000000000000e5065736861776172205a616c6d69000000000000000000000000000000000000000000000000000000000000000000000000000000000000000000000000001151756574746120476c61646961746f7273000000000000000000000000000000",
          "blockHash": "0xa0e4d43571da45b2d94214bc099973ce33942f747af58d161fdc5095bd3e7012",
          "blockNumber": "0xdc826",
          "blockTimestamp": "0x69dee78a",
          "transactionHash": "0xe09ba6dbf58d2a8704cbcdda64e8438359629f4eae3ebadfec98bfd150b79107",
          "transactionIndex": "0x2",
          "logIndex": "0x2",
          "removed": false
        }
      ],
      "logsBloom": "0x00000000000000000000000000000000000100000000000000000000000000000000000000000000000000000000000000000000020000000000000000000000000000000000000000000000000000000000000000000000000000801000000000000000000000000000000000000000000000001000000080000000000000000000000000000000000000000000000000040000000000000000000000000000000000000000000000000000000000000000000000800000000000000000400000000000000000000000000000000000000000000000000000000000000000000000000000000000000000000000000000000000000000000000000000000000",
      "type": "0x0",
      "transactionHash": "0xe09ba6dbf58d2a8704cbcdda64e8438359629f4eae3ebadfec98bfd150b79107",
      "transactionIndex": "0x2",
      "blockHash": "0xa0e4d43571da45b2d94214bc099973ce33942f747af58d161fdc5095bd3e7012",
      "blockNumber": "0xdc826",
      "gasUsed": "0x26624",
      "effectiveGasPrice": "0x29e8d6080",
      "from": "0xb5120cdb834db8e94846f5779ee03c147c1191ea",
      "to": "0x804770df179ca465a8ed7d2d827cc200394c4265",
      "contractAddress": null
    }
  ],
  "libraries": [],
  "pending": [],
  "returns": {},
  "timestamp": 1776215954722,
  "chain": 92533,
  "commit": "3e001b8"
}