{
  "transactions": [
    {
      "hash": "0x81879ce6902ce6810fb31c08643b38fe6380ab860ad7dca26ad7be8f5e8eeb1f",
      "transactionType": "CALL",
      "contractName": null,
      "contractAddress": "0x4d525f583bc399dd1ff11da97e449314a0072a35",
      "function": "resolveMatch(uint256,uint8)",
      "arguments": [
        "1",
        "1"
      ],
      "transaction": {
        "from": "0xb5120cdb834db8e94846f5779ee03c147c1191ea",
        "to": "0x4d525f583bc399dd1ff11da97e449314a0072a35",
        "gas": "0x70789",
        "value": "0x0",
        "input": "0x20d54ecf00000000000000000000000000000000000000000000000000000000000000010000000000000000000000000000000000000000000000000000000000000001",
        "nonce": "0x23",
        "chainId": "0x16975"
      },
      "additionalContracts": [],
      "isFixedGasLimit": false
    },
    {
      "hash": "0xb12a5abb5c5ddb911ca212d6e98ea09cfe1917ac6f4166e34eece2ccffca6177",
      "transactionType": "CALL",
      "contractName": null,
      "contractAddress": "0x4d525f583bc399dd1ff11da97e449314a0072a35",
      "function": "resolveMatch(uint256,uint8)",
      "arguments": [
        "2",
        "2"
      ],
      "transaction": {
        "from": "0xb5120cdb834db8e94846f5779ee03c147c1191ea",
        "to": "0x4d525f583bc399dd1ff11da97e449314a0072a35",
        "gas": "0x1414d",
        "value": "0x0",
        "input": "0x20d54ecf00000000000000000000000000000000000000000000000000000000000000020000000000000000000000000000000000000000000000000000000000000002",
        "nonce": "0x24",
        "chainId": "0x16975"
      },
      "additionalContracts": [],
      "isFixedGasLimit": false
    },
    {
      "hash": "0x858e4d46481766a260eb17e04d09d348dda5bc46a1040cace7bf420c9bd425ec",
      "transactionType": "CALL",
      "contractName": null,
      "contractAddress": "0x4d525f583bc399dd1ff11da97e449314a0072a35",
      "function": "resolveMatch(uint256,uint8)",
      "arguments": [
        "3",
        "3"
      ],
      "transaction": {
        "from": "0xb5120cdb834db8e94846f5779ee03c147c1191ea",
        "to": "0x4d525f583bc399dd1ff11da97e449314a0072a35",
        "gas": "0x1414d",
        "value": "0x0",
        "input": "0x20d54ecf00000000000000000000000000000000000000000000000000000000000000030000000000000000000000000000000000000000000000000000000000000003",
        "nonce": "0x25",
        "chainId": "0x16975"
      },
      "additionalContracts": [],
      "isFixedGasLimit": false
    }
  ],
  "receipts": [
    {
      "status": "0x1",
      "cumulativeGasUsed": "0x516d5",
      "logs": [
        {
          "address": "0x817bb3e1b08ecfe273326619123b9f9fba55c000",
          "topics": [
            "0x00b6232a3f584120dbd4eaa330048f5cf9baa3f0d527bd3e9c07609f7a363593",
            "0x00000000000000000000000070997970c51812dc3a010c7d01b50e0d17dc79c8"
          ],
          "data": "0x0000000000000000000000000000000000000000000000000000c50ea3b38aaa",
          "blockHash": "0x338402e8106d4ff0c980285b2d84be4a78468d2fa6f93bd57b1198283c558b1d",
          "blockNumber": "0xdaa52",
          "blockTimestamp": "0x69de3c81",
          "transactionHash": "0x81879ce6902ce6810fb31c08643b38fe6380ab860ad7dca26ad7be8f5e8eeb1f",
          "transactionIndex": "0x0",
          "logIndex": "0x0",
          "removed": false
        },
        {
          "address": "0x817bb3e1b08ecfe273326619123b9f9fba55c000",
          "topics": [
            "0x00b6232a3f584120dbd4eaa330048f5cf9baa3f0d527bd3e9c07609f7a363593",
            "0x0000000000000000000000003c44cdddb6a900fa2b585dd299e03d12fa4293bc"
          ],
          "data": "0x0000000000000000000000000000000000000000000000000000c50ea3b38aaa",
          "blockHash": "0x338402e8106d4ff0c980285b2d84be4a78468d2fa6f93bd57b1198283c558b1d",
          "blockNumber": "0xdaa52",
          "blockTimestamp": "0x69de3c81",
          "transactionHash": "0x81879ce6902ce6810fb31c08643b38fe6380ab860ad7dca26ad7be8f5e8eeb1f",
          "transactionIndex": "0x0",
          "logIndex": "0x1",
          "removed": false
        },
        {
          "address": "0x817bb3e1b08ecfe273326619123b9f9fba55c000",
          "topics": [
            "0x00b6232a3f584120dbd4eaa330048f5cf9baa3f0d527bd3e9c07609f7a363593",
            "0x00000000000000000000000090f79bf6eb2c4f870365e785982e1f101e93b906"
          ],
          "data": "0x0000000000000000000000000000000000000000000000000000c50ea3b38aac",
          "blockHash": "0x338402e8106d4ff0c980285b2d84be4a78468d2fa6f93bd57b1198283c558b1d",
          "blockNumber": "0xdaa52",
          "blockTimestamp": "0x69de3c81",
          "transactionHash": "0x81879ce6902ce6810fb31c08643b38fe6380ab860ad7dca26ad7be8f5e8eeb1f",
          "transactionIndex": "0x0",
          "logIndex": "0x2",
          "removed": false
        },
        {
          "address": "0x4d525f583bc399dd1ff11da97e449314a0072a35",
          "topics": [
            "0x44bb92a6eff3306c2c3b7967c1f46d979b2d8a4b0568ef084ef522a195d6e0da",
            "0x0000000000000000000000000000000000000000000000000000000000000001"
          ],
          "data": "0x000000000000000000000000000000000000000000000000000000000000000100000000000000000000000000000000000000000000000000024f2beb1aa00000000000000000000000000000000000000000000000000000013e52b9abe000",
          "blockHash": "0x338402e8106d4ff0c980285b2d84be4a78468d2fa6f93bd57b1198283c558b1d",
          "blockNumber": "0xdaa52",
          "blockTimestamp": "0x69de3c81",
          "transactionHash": "0x81879ce6902ce6810fb31c08643b38fe6380ab860ad7dca26ad7be8f5e8eeb1f",
          "transactionIndex": "0x0",
          "logIndex": "0x3",
          "removed": false
        }
      ],
      "logsBloom": "0x00000000000008000002000000000000000000000000000000000000000000000000000000000000000000000100200000000000000000100000000000140000000000000000000000000400000000000000000000040000000000000000000000000800000800000000000000000000000800000000000000000000000000000000000000000000000000000000000000000080000000000400000000000001000000200000200000000000000000000000000000010000200000000000000000000000000000000000000000000000400000000000000000000000000040000000000000000000000010000000000001000000000000000000004000000000",
      "type": "0x0",
      "transactionHash": "0x81879ce6902ce6810fb31c08643b38fe6380ab860ad7dca26ad7be8f5e8eeb1f",
      "transactionIndex": "0x0",
      "blockHash": "0x338402e8106d4ff0c980285b2d84be4a78468d2fa6f93bd57b1198283c558b1d",
      "blockNumber": "0xdaa52",
      "gasUsed": "0x516d5",
      "effectiveGasPrice": "0x29e8d6080",
      "from": "0xb5120cdb834db8e94846f5779ee03c147c1191ea",
      "to": "0x4d525f583bc399dd1ff11da97e449314a0072a35",
      "contractAddress": null
    },
    {
      "status": "0x1",
      "cumulativeGasUsed": "0x5ff74",
      "logs": [
        {
          "address": "0x4d525f583bc399dd1ff11da97e449314a0072a35",
          "topics": [
            "0x44bb92a6eff3306c2c3b7967c1f46d979b2d8a4b0568ef084ef522a195d6e0da",
            "0x0000000000000000000000000000000000000000000000000000000000000002"
          ],
          "data": "0x000000000000000000000000000000000000000000000000000000000000000200000000000000000000000000000000000000000000000000000000000000000000000000000000000000000000000000000000000000000000000000000000",
          "blockHash": "0x338402e8106d4ff0c980285b2d84be4a78468d2fa6f93bd57b1198283c558b1d",
          "blockNumber": "0xdaa52",
          "blockTimestamp": "0x69de3c81",
          "transactionHash": "0xb12a5abb5c5ddb911ca212d6e98ea09cfe1917ac6f4166e34eece2ccffca6177",
          "transactionIndex": "0x1",
          "logIndex": "0x4",
          "removed": false
        }
      ],
      "logsBloom": "0x04000000000008000000000000000000000000000000000000000000000000000000000000000000000000000000000000000000000000000000000000000000000000000000000000000400000000000000000000000000000000000000000000000000000000000000000000000000000000000000000000000000000000000000000000000000000000000000000000000000000000000000000000000001000000200000000000000100000000000000000000000000200000000000000000000000000000000000000000000000000000000000000000000000000000000000000000000000000000000000000000000000008000000000004000000000",
      "type": "0x0",
      "transactionHash": "0xb12a5abb5c5ddb911ca212d6e98ea09cfe1917ac6f4166e34eece2ccffca6177",
      "transactionIndex": "0x1",
      "blockHash": "0x338402e8106d4ff0c980285b2d84be4a78468d2fa6f93bd57b1198283c558b1d",
      "blockNumber": "0xdaa52",
      "gasUsed": "0xe89f",
      "effectiveGasPrice": "0x29e8d6080",
      "from": "0xb5120cdb834db8e94846f5779ee03c147c1191ea",
      "to": "0x4d525f583bc399dd1ff11da97e449314a0072a35",
      "contractAddress": null
    },
    {
      "status": "0x1",
      "cumulativeGasUsed": "0x6e813",
      "logs": [
        {
          "address": "0x4d525f583bc399dd1ff11da97e449314a0072a35",
          "topics": [
            "0x44bb92a6eff3306c2c3b7967c1f46d979b2d8a4b0568ef084ef522a195d6e0da",
            "0x0000000000000000000000000000000000000000000000000000000000000003"
          ],
          "data": "0x000000000000000000000000000000000000000000000000000000000000000300000000000000000000000000000000000000000000000000000000000000000000000000000000000000000000000000000000000000000000000000000000",
          "blockHash": "0x338402e8106d4ff0c980285b2d84be4a78468d2fa6f93bd57b1198283c558b1d",
          "blockNumber": "0xdaa52",
          "blockTimestamp": "0x69de3c81",
          "transactionHash": "0x858e4d46481766a260eb17e04d09d348dda5bc46a1040cace7bf420c9bd425ec",
          "transactionIndex": "0x2",
          "logIndex": "0x5",
          "removed": false
        }
      ],
      "logsBloom": "0x00000000000008000000000000000000000000000000000000000000000000000000000000000000000000000000000000000000020000000000000000000000000000000000000000000400000000000000000000000000000000000000000000000000000000000000000000000000000000000000000000000000000000000000000000000000000000000000000000000000000000000000000000000001000000200000000000000000000000000000000000800000200000000000400000000000000000000000000000000000000000000000000000000000000000000000000000000000000000000000000000000000000000000000004000000000",
      "type": "0x0",
      "transactionHash": "0x858e4d46481766a260eb17e04d09d348dda5bc46a1040cace7bf420c9bd425ec",
      "transactionIndex": "0x2",
      "blockHash": "0x338402e8106d4ff0c980285b2d84be4a78468d2fa6f93bd57b1198283c558b1d",
      "blockNumber": "0xdaa52",
      "gasUsed": "0xe89f",
      "effectiveGasPrice": "0x29e8d6080",
      "from": "0xb5120cdb834db8e94846f5779ee03c147c1191ea",
      "to": "0x4d525f583bc399dd1ff11da97e449314a0072a35",
      "contractAddress": null
    }
  ],
  "libraries": [],
  "pending": [],
  "returns": {},
  "timestamp": 1776172170352,
  "chain": 92533,
  "commit": "a2b06ab"
}